{
  "_format": "hh-sol-artifact-1",
  "contractName": "Ballot",
  "sourceName": "contracts/ImprovedBallot.sol",
  "abi": [
    {
      "inputs": [
        {
          "internalType": "bytes32[]",
          "name": "proposalNames",
          "type": "bytes32[]"
        }
      ],
      "stateMutability": "nonpayable",
      "type": "constructor"
    },
    {
      "inputs": [],
      "name": "chairperson",
      "outputs": [
        {
          "internalType": "address",
          "name": "",
          "type": "address"
        }
      ],
      "stateMutability": "view",
      "type": "function"
    },
    {
      "inputs": [
        {
          "internalType": "address",
          "name": "to",
          "type": "address"
        }
      ],
      "name": "delegate",
      "outputs": [],
      "stateMutability": "nonpayable",
      "type": "function"
    },
    {
      "inputs": [
        {
          "internalType": "address[]",
          "name": "_voters",
          "type": "address[]"
        }
      ],
      "name": "giveRightToVote",
      "outputs": [],
      "stateMutability": "nonpayable",
      "type": "function"
    },
    {
      "inputs": [
        {
          "internalType": "uint256",
          "name": "",
          "type": "uint256"
        }
      ],
      "name": "proposals",
      "outputs": [
        {
          "internalType": "bytes32",
          "name": "name",
          "type": "bytes32"
        },
        {
          "internalType": "uint256",
          "name": "voteCount",
          "type": "uint256"
        }
      ],
      "stateMutability": "view",
      "type": "function"
    },
    {
      "inputs": [
        {
          "internalType": "uint256",
          "name": "proposal",
          "type": "uint256"
        }
      ],
      "name": "vote",
      "outputs": [],
      "stateMutability": "nonpayable",
      "type": "function"
    },
    {
      "inputs": [
        {
          "internalType": "address",
          "name": "",
          "type": "address"
        }
      ],
      "name": "voters",
      "outputs": [
        {
          "internalType": "uint256",
          "name": "weight",
          "type": "uint256"
        },
        {
          "internalType": "bool",
          "name": "voted",
          "type": "bool"
        },
        {
          "internalType": "address",
          "name": "delegate",
          "type": "address"
        },
        {
          "internalType": "uint256",
          "name": "vote",
          "type": "uint256"
        }
      ],
      "stateMutability": "view",
      "type": "function"
    },
    {
      "inputs": [],
      "name": "winnerName",
      "outputs": [
        {
          "internalType": "bytes32",
          "name": "winnerName_",
          "type": "bytes32"
        }
      ],
      "stateMutability": "view",
      "type": "function"
    },
    {
      "inputs": [],
      "name": "winningProposal",
      "outputs": [
        {
          "internalType": "uint256",
          "name": "winningProposal_",
          "type": "uint256"
        }
      ],
      "stateMutability": "view",
      "type": "function"
    }
  ],
  "bytecode": "0x608060405234801561001057600080fd5b50604051610ac8380380610ac883398101604081905261002f916100da565b600080546001600160a01b03191633908117825581526001602081905260408220555b81518110156100d3576002604051806040016040528084848151811061008857634e487b7160e01b600052603260045260246000fd5b602090810291909101810151825260009181018290528354600181810186559483529181902083516002909302019182559190910151910155806100cb81610199565b915050610052565b50506101d6565b600060208083850312156100ec578182fd5b82516001600160401b0380821115610102578384fd5b818501915085601f830112610115578384fd5b815181811115610127576101276101c0565b8060051b604051601f19603f8301168101818110858211171561014c5761014c6101c0565b604052828152858101935084860182860187018a101561016a578788fd5b8795505b8386101561018c57805185526001959095019493860193860161016e565b5098975050505050505050565b60006000198214156101b957634e487b7160e01b81526011600452602481fd5b5060010190565b634e487b7160e01b600052604160045260246000fd5b6108e3806101e56000396000f3fe608060405234801561001057600080fd5b50600436106100885760003560e01c8063609ff1bd1161005b578063609ff1bd1461010d5780638581682914610123578063a3ec138d14610136578063e2ba53f0146101a757600080fd5b80630121b93f1461008d578063013cf08b146100a25780632e4176cf146100cf5780635c19a95c146100fa575b600080fd5b6100a061009b366004610836565b6101af565b005b6100b56100b0366004610836565b6102b4565b604080519283526020830191909152015b60405180910390f35b6000546100e2906001600160a01b031681565b6040516001600160a01b0390911681526020016100c6565b6100a061010836600461074e565b6102e2565b6101156104ef565b6040519081526020016100c6565b6100a061013136600461076f565b610588565b61017861014436600461074e565b600160208190526000918252604090912080549181015460029091015460ff82169161010090046001600160a01b03169084565b6040516100c6949392919093845291151560208401526001600160a01b03166040830152606082015260800190565b6101156106f1565b33600090815260016020526040902080546102085760405162461bcd60e51b8152602060048201526014602482015273486173206e6f20726967687420746f20766f746560601b60448201526064015b60405180910390fd5b600181015460ff161561024e5760405162461bcd60e51b815260206004820152600e60248201526d20b63932b0b23c903b37ba32b21760911b60448201526064016101ff565b6001818101805460ff191690911790556002808201839055815481549091908490811061028b57634e487b7160e01b600052603260045260246000fd5b906000526020600020906002020160010160008282546102ab919061084e565b90915550505050565b600281815481106102c457600080fd5b60009182526020909120600290910201805460019091015490915082565b3360009081526001602081905260409091209081015460ff161561033d5760405162461bcd60e51b81526020600482015260126024820152712cb7ba9030b63932b0b23c903b37ba32b21760711b60448201526064016101ff565b6001600160a01b0382163314156103965760405162461bcd60e51b815260206004820152601e60248201527f53656c662d64656c65676174696f6e20697320646973616c6c6f7765642e000060448201526064016101ff565b6001600160a01b03828116600090815260016020819052604090912001546101009004161561043b576001600160a01b0391821660009081526001602081905260409091200154610100900490911690338214156104365760405162461bcd60e51b815260206004820152601960248201527f466f756e64206c6f6f7020696e2064656c65676174696f6e2e0000000000000060448201526064016101ff565b610396565b600181810180546001600160a81b0319166101006001600160a01b03861690810291909117831790915560009081526020829052604090209081015460ff16156104d0578154600282810154815481106104a557634e487b7160e01b600052603260045260246000fd5b906000526020600020906002020160010160008282546104c5919061084e565b909155506104ea9050565b8154815482906000906104e490849061084e565b90915550505b505050565b600080805b60025481101561058357816002828154811061052057634e487b7160e01b600052603260045260246000fd5b9060005260206000209060020201600101541115610571576002818154811061055957634e487b7160e01b600052603260045260246000fd5b90600052602060002090600202016001015491508092505b8061057b81610866565b9150506104f4565b505090565b6000546001600160a01b031633146105f35760405162461bcd60e51b815260206004820152602860248201527f4f6e6c79206368616972706572736f6e2063616e2067697665207269676874206044820152673a37903b37ba329760c11b60648201526084016101ff565b60005b81518110156106ed57600082828151811061062157634e487b7160e01b600052603260045260246000fd5b6020908102919091018101516001600160a01b0381166000908152600192839052604090209091015490915060ff161561069d5760405162461bcd60e51b815260206004820152601860248201527f54686520766f74657220616c726561647920766f7465642e000000000000000060448201526064016101ff565b6001600160a01b038116600090815260016020526040902054156106c057600080fd5b6001600160a01b0316600090815260016020819052604090912055806106e581610866565b9150506105f6565b5050565b600060026106fd6104ef565b8154811061071b57634e487b7160e01b600052603260045260246000fd5b906000526020600020906002020160000154905090565b80356001600160a01b038116811461074957600080fd5b919050565b60006020828403121561075f578081fd5b61076882610732565b9392505050565b60006020808385031215610781578182fd5b823567ffffffffffffffff80821115610798578384fd5b818501915085601f8301126107ab578384fd5b8135818111156107bd576107bd610897565b8060051b604051601f19603f830116810181811085821117156107e2576107e2610897565b604052828152858101935084860182860187018a1015610800578788fd5b8795505b838610156108295761081581610732565b855260019590950194938601938601610804565b5098975050505050505050565b600060208284031215610847578081fd5b5035919050565b6000821982111561086157610861610881565b500190565b600060001982141561087a5761087a610881565b5060010190565b634e487b7160e01b600052601160045260246000fd5b634e487b7160e01b600052604160045260246000fdfea2646970667358221220681e811cae7aec5415fe7bc0d76b693fb3b2afe6f4ff4ae79b386e0091ef013e64736f6c63430008040033",
  "linkReferences": {},
  "deployedLinkReferences": {}
}